:100000006F00C0006F0000006F008002735000306E
:1000100073503030735020307350403097010020BF
:100020009381417E173100201301C1CC6F00D0387D
:10003000130101F82322110023242100232631007B
:1000400023284100232A5100232C6100232E710014
:1000500023208102232291022324A1022326B1021C
:100060002328C102232AD102232CE102232EF102EC
:1000700023200105232211052324210523263105F0
:1000800023284105232A5105232C6105232E7105C0
:1000900023208107232291072324A1072326B107C8
:1000A0002328C107232AD107232CE107232EF10798
:1000B00073252034F325103413060100EF00102DB2
:1000C00073101534B72200009382028073A00230AF
:1000D00083204100032181008321C100032201010B
:1000E00083224101032381018323C10103240102EF
:1000F00083244102032581028325C10203260103D3
:1001000083264103032781038327C10303280104B6
:1001100083284104032981048329C104032A01059A
:10012000832A4105032B8105832BC105032C01067E
:10013000832C4106032D8106832DC106032E010762
:10014000832E4107032F8107832FC1071301010865
:1001500073002030732500F0B7470F009387072402
:100160003345F50267800000B78701009387076A6F
:1001700023A0F50067800000130101FF2326110072
:10018000EF00C0049307F0FF6308F5008320C1006F
:100190001301010167800000130500006FF01FFFCD
:1001A00067800000130101FF23261100930505005D
:1001B00013070003B75700703765006023A0E70AF4
:1001C000130505DFEF1080496F000000B73600808F
:1001D00003A706EFB7370080138607CF6304070233
:1001E000B307A7001305F0FF63ECC70037360080A4
:1001F000130606EF6366F60023A8F6EE1305070064
:100200006780000023A8C6EE138707CF6FF05FFD5D
:1002100023A4A1881305F0FF6780000013052000C8
:100220006FF01FFF130590006FF09FFE1305F5FFA1
:100230009307100063F6A700130590006FF05FFDB1
:10024000B727000023A8F500130500006780000011
:100250001305F5FF9307100063FAA700130790003A
:1002600023A4E188130500006780000013850700C0
:10027000678000001305F5FF9307100063F6A700E1
:10028000130590006FF0DFF8130500006780000091
:10029000130101FF23248100232291002326110052
:1002A0001384050093040600EFF09FFA631E050017
:1002B0008320C100032481008324410013059000A2
:1002C000130101016FF0DFF41386040093050400AD
:1002D0008320C10003248100832441001385018809
:1002E000130101016F208001130101FE232C810005
:1002F00023225101232E1100232A910023282101BA
:1003000023263101232441012320610113840500A8
:10031000930A0600EFF0DFF3630E0506B3095401FC
:1003200093041000130AA000376B0060637234035B
:10033000930504001386040013850188EF10506BA9
:100340008347040013041400638A4703E31234FF55
:100350008320C10113850A00032481018324410104
:10036000032901018329C100032A8100832A410056
:10037000032B0100130101026780000013860400B3
:1003800093054BE113850188EF109066E31234FB6F
:100390006FF01FFC8320C1010324810183244101EC
:1003A000032901018329C100032A8100832A410016
:1003B000032B010013059000130101026FF05FE5AC
:1003C000130101F5130500032326110A2320A109B7
:1003D0002324810A2322910A2320210B232E310971
:1003E000232C4109232A5109232861092326710955
:1003F0002324810923229109232EB107EFF0DFD7AF
:1004000023A2A18413050003EFF01FD783A7418423
:1004100023A0A1842320F500930720002324F500C6
:10042000B7550060930780021306F0019385855C41
:100430002326F5002322050013050501EF20002DDA
:10044000B767006013850783B7575259938747846E
:100450002328F102B7574F4E93873745232AF102DD
:10046000B727505293875704232CF102B7475241C4
:100470009387F774232EF102B73720319387D7C4BF
:100480002320F104B7575420938777322322F104B5
:10049000B7575249938737452324F104B7470000E3
:1004A0009387E7741387819D2316F1049307A000B7
:1004B000232EF76423070104EF10401A375500601C
:1004C0001305855EEF108019B767006013850783F9
:1004D000EF10C01883A74185638C0764375500600F
:1004E00013058561EF108017B767006013850783D8
:1004F000EF10C0163755006013054567EF10001662
:1005000037550060930501051305C56AEFF0DFC597
:100510008327010513840700232CF100B7670060CF
:1005200013850783EF10801337550060930504008F
:100530001305056BEF10801213050000EFF09FC14B
:1005400023ACA18463588062930701032328F10040
:100550002326F100232AF1002324F100B7372032AB
:10056000B75C5259375C4F4EB72B5052374B524104
:100570009387D7C4B75A5249374A000093091000ED
:10058000938C4C84130C3C45938B5B04130BFB74D2
:10059000232EF100938A3A45130AEA74EF00D0043F
:1005A000EF0050028327C10103250101130420003D
:1005B0002320F106B7574420938777E22322F106E0
:1005C00093050105930710002326F10223228102DF
:1005D00023289105232A8105232C7105232E6105EB
:1005E000232451072316410723070106EF001016A5
:1005F0008327C100032641021335150023A6A184D9
:10060000634CC4021309300093172600B387C70058
:100610009387D7FF1305060093050900130681028F
:100620002324F102EF0050090326410213061600AD
:100630002322C102E35AC4FC9385819D8327410193
:10064000832681021304300013850191EF00D00747
:1006500003A50184EF00005C03C711859307000424
:1006600063F6E708130910046F00400183C7118582
:10067000130919001379F90F63EA2707930530046A
:1006800013050900EF00900A8327C102E310F5FE6D
:100690009305C10213050000EF000076B757442010
:1006A00013877722B73720339387D7C42320F106E7
:1006B00083278100130919002328910523A431857C
:1006C00083C71185232A8105232C7105232E6105FB
:1006D0002322E1062324510723164107230701069D
:1006E0001379F90F13840900E3FA27F9032741026C
:1006F000832D8102130541023304E402938919001A
:100700003349B40323222103EF00006783278101CB
:10071000E3D637E93304B441131B340033048B4070
:10072000330B244113050000EFF0DFA223AEA184B8
:10073000375500601305056EEF005072B767006013
:1007400013850783EF009071375500601305056F1F
:10075000EF00D070B767006013850783EF0010705B
:1007600083278100375500601305857283A5818436
:100770003754006037590060EF00506E9305500009
:1007800013054474EF00906D8327C1003755006056
:100790001305057683A5C184376C0060B76A0060D5
:1007A000EF00D06B9305100013054474EF00106B3D
:1007B00083C50185375500601305C577EF00106AC2
:1007C0009305100413058979EF00506983C51185DD
:1007D000375500601305457BEF00506893052004F2
:1007E00013058979EF009067832741013755006031
:1007F0001305057D9387019183A50702376A006081
:10080000B7690060EF0090659305700013054474AC
:10081000EF00D0649387819D83A5C765375500603D
:100820001305C57EEF009063376500601305858072
:10083000EF00D0623765006013054583EF0010625A
:1008400083A7018413050C843769006083A5070022
:10085000B7640060EF009060376500601305C585E0
:10086000EF00D05F83A7018413850A8983A5470021
:10087000EF00D05E9305000013054474EF00105E96
:1008800083A701841305CA8A83A58700EF00105D42
:100890009305200013054474EF00505C83A7018486
:1008A0001385898C83A5C700EF00505B9305100169
:1008B00013054474EF00905A83A501841305498EF3
:1008C00093850501EF00905913850490EF001059AE
:1008D0003765006013058593EF00505883A7418466
:1008E00013050C8483A50700EF005057376500609F
:1008F0001305C594EF00905683A7418413850A8998
:1009000083A54700EF00905593050000130544743C
:10091000EF00D05483A741841305CA8A83A58700BA
:10092000EF00D0539305100013054474EF001053EB
:1009300083A741841385898C83A5C700EF001052DB
:100940009305200113054474EF00505183A54184A1
:100950001305498E93850501EF00505013850490CF
:10096000EF00D04F83254102376500601305C5981D
:10097000EF00D04E9305500013054474EF00104E65
:100980003765006093050B001305859AEF00104D45
:100990009305D00013054474EF00504C8325810269
:1009A000376500601305459CEF00504B93057000C0
:1009B00013054474EF00904A8325C1023765006037
:1009C0001305059EEF00904993051000130544742C
:1009D000EF00D04883250101376500601305C59FEE
:1009E000EF00D04737650060130585A1EF00104781
:1009F0003765006093050105130505A5EF00104656
:100A0000376500601305C5A6EF005045B767006065
:100A100013850783EF00904403A7818503A5C18553
:100A2000930710003305E54023A0A18663D0A712E9
:100A3000EF3040309309050003258101EF30802F0E
:100A40001309050013850900EF30C051B767006036
:100A500003A687E183A6C7E1EF30D04A130A050059
:100A600013050900938A0500EF30C04F13060500F7
:100A70009386050013050A0093850A00EF30D06EB7
:100A8000EF4000559385090023A2A18613050900B4
:100A9000EF20D07523A4A186376500601305C5AF8C
:100AA000EF00D03B03A5418637640060EF30804BF8
:100AB00013060500938605001305C4B2EF00103A33
:100AC00037650060130545B3EF00503903A58186F3
:100AD000EF30404913060500938605001305C4B2A4
:100AE000EF00D037B767006013850783EF0010373A
:100AF0008320C10A130500000324810A8324410ACC
:100B00000329010A8329C109032A8109832A41098A
:100B1000032B0109832BC108032C8108832C410876
:100B2000032D0108832DC1071301010B678000000D
:100B30003755006013054564EF005032B767006019
:100B400013850783EF0090316FF0DF9A37650060FF
:100B5000130545AAEF009030376500601305C5AD59
:100B6000EF00D02FB767006013850783EF00102FC9
:100B70006FF01FF8930701032328F1002326F100EB
:100B8000232AF1002324F1006FF0DFB9130101FFE4
:100B9000B75500602324810013065000130405009C
:100BA0009385855B1305100023261100EFF0CFF32A
:100BB00013051400EFF00FDFB7370080938747EF7E
:100BC00013860180130101FE3386C74093050000A0
:100BD00013850180232E1100EF101045930610009D
:100BE0001306C002B715007013850188EF10C054BA
:100BF000B75700609387075C930541001305100009
:100C00002322F1002324010023260100EFF04FFBF3
:100C1000EFF04FD9130101FF2320210183A70184A5
:100C2000232481000324050083A607002326110046
:100C3000232291002320D40083A6470093040500BB
:100C4000130750002322D40083A687001305040055
:100C50002324D40083A6C7002326D40083A607013B
:100C60002328D40083A64701232AD40083A6870122
:100C7000232CD40083A6C701232ED40083A6070209
:100C80002320D40283A647022322D40283A687020C
:100C90002324D40283A7C7022326F40223A6E40058
:100CA0002326E40083A704002320F400EF00400F74
:100CB000832744006380070883A704008320C100C2
:100CC0000324810003A707000329010023A0E400F7
:100CD00003A7470023A2E40003A7870023A4E4009E
:100CE00003A7C70023A6E40003A7070123A8E40085
:100CF00003A7470123AAE40003A7870123ACE4006C
:100D000003A7C70123AEE40003A7070223A0E40260
:100D100003A7470223A2E40203A7870223A4E40255
:100D200083A7C70223A6F402832441001301010113
:100D300067800000930760002326F40003A5840069
:100D400093058400EF00400B83A701840325C400B2
:100D50001306C40083A707008320C1008324410039
:100D60002320F40003290100032481009305A0003F
:100D7000130101016F00401403C70185930710049C
:100D80006304F700678000008327050003A78184C0
:100D900093879700B387E7402320F5006780000022
:100DA00003A6018463080600032706002320E5004C
:100DB00003A6018483A581841306C6001305A00041
:100DC0006F00800F83C7018583A6C1849387F7FBDB
:100DD00093B71700B3E7D70023A6F18413072004C5
:100DE000A388E18467800000130710042388E1844E
:100DF00023A6018467800000130101FF23248100E2
:100E0000232291002326110013040500938405007A
:100E1000EF00C01A630E050223A0840093071000A0
:100E20006300F4046304040413072000630CE40467
:100E3000930740006314F40023A0E4008320C10062
:100E40000324810083244100130101016780000015
:100E50009307300023A0F40093071000E314F4FC80
:100E600003A781849307400663DAE7028320C10069
:100E700023A0040003248100832441001301010105
:100E8000678000008320C10023A0F40003248100B8
:100E90008324410013010101678000008320C10009
:100EA0009307300023A0F400032481008324410031
:100EB000130101016780000013052500B305B5008B
:100EC0002320B60067800000130756001308800C2B
:100ED0003308070313162600931727003305F50080
:100EE0002320D500232CE5062322D500B307C80014
:100EF000B387F50083A6070123AAE70023ACE70028
:100F00001387160023A8E70083270500B385050192
:100F1000B385C50037160000B305B60023AAF5FA5D
:100F20001307500023A4E184678000001375F50FB8
:100F300093F5F50F6306B500130500006780000008
:100F40002388A1841305100067800000130101FFAE
:100F5000232481002322910023261100130405007D
:100F60009384050083C5340003452400EFF01FFC83
:100F7000E31A05FE9385040013050400EF10901892
:100F80006352A0028320C1001307A00013051000C4
:100F9000032481008324410023A4E184130101017F
:100FA000678000008320C100130500000324810036
:100FB0008324410013010101678000001305E5FF50
:100FC0001335150067800000130101FE13061000A1
:100FD0002326A1009305C10013050600232E11004E
:100FE000EFF08FB093071000631AF5000325C100DE
:100FF0008320C10113010102678000001305F0FF87
:101000006FF01FFF83A705002380A70083A70500BB
:101010009387170023A0F500678000009307100056
:101020001307050063CAB70283270500639C050008
:1010300003A5070093874700930500002320F700CE
:1010400067800000938647002320D50093050000A9
:1010500003A50700678000008327050093877700BA
:1010600093F787FF938687002320D50083A5470049
:1010700003A5070067800000930710001307050011
:1010800063CEB7008327050003A5070093874700B9
:101090002320F7009355F541678000008327050062
:1010A0009387770093F787FF938687002320D500E7
:1010B00083A5470003A5070067800000130101ED29
:1010C0002324811223229112138406009304060024
:1010D000232E3111232C411193090500138A050099
:1010E000130607009306000013850400930504000F
:1010F000232A5111232861112326711123248111E0
:101100002326111223202113232291112320A11120
:10111000930A0700138C0700930B0800EF10106868
:101120002320A100130B000063040410930C410062
:101130001309100013860A009306000013850400AB
:1011400093050400EF10101F13860A009306000099
:101150009304050013840500EF10506423A0AC0035
:10116000130D1900938C4C0063068B0013090D00BE
:101170006FF05FFCE3FC54FF1304FCFF63508D032E
:1011800093050A0013850B001304F4FFE7800900A0
:1011900093071400E346FDFE6350A0079317290050
:1011A00013070110B307F70003A507F01314290074
:1011B0009307011033848700930409001304C4EFDC
:1011C000930A900013090003130B70056F000001D0
:1011D000032504009384F4FF1304C4FF93050A005D
:1011E0009307090063F4AA0093070B003305F50089
:1011F000E7800900E34E90FC8320C1120324811292
:1012000083244112032901128329C111032A811168
:10121000832A4111032B0111832BC110032C811050
:10122000832C4110032D011013010113678000006E
:10123000E3FE54EF130D10001304FCFF130900002C
:10124000E3408DF56FF09FF6130101FC2324410369
:10125000376A0060232C81022328210323263103CF
:101260002322510323206103232E7101232E110217
:10127000232A9102232C8101232A91012328A101F1
:101280009309050013890500130406002326D100E5
:10129000130ACAB6130B1000B76B0060930AF0FF75
:1012A0000345040093045002630E9500630805068D
:1012B0009305090013041400E780090003450400A6
:1012C000E31695FE0326C10003471400130D140016
:1012D0009304F0FF1303060093070D00930800002A
:1012E000930C0002138C04009305000013055005B5
:1012F000930E000313089000130ED0029306D7FD3F
:1013000093F6F60F138417006364D52A939626008C
:10131000B386460183A60600678006008320C103CA
:101320000324810383244103032901038329C10288
:10133000032A8102832A4102032B0102832BC1016C
:10134000032C8101832C4101032D010113010104B0
:101350006780000063540C00130C000003C71700E3
:10136000930704006FF09FF96392082E9304000125
:101370001305C100EFF09FCA130605009386050010
:1013800013880C0093070C001387040093050900D1
:1013900013850900EFF09FD26FF09FF06394082A45
:1013A0009305090013055002E78009006FF05FEF15
:1013B0008324030003C717001303430093070400AB
:1013C00093080B00E35C0CF2138C04009304F0FF11
:1013D0006FF0DFF203C71700930C0E0093070400B1
:1013E0006FF0DFF103C71700938C0E009307040022
:1013F0006FF0DFF083C61700930407FD938706FDA7
:101400006366F81E9307040013972400B304970043
:101410009387170093941400B384D40083C6070005
:10142000938404FD138706FDE370E8FE138706002E
:101430006FF05FF96394081E032506009305090009
:10144000130646002326C100E78009006FF05FE520
:10145000639E081C930480006FF09FF16394081C46
:101460001305000393050900E780090093050900AF
:1014700013058007E780090093040001930510001D
:101480006FF01FEF63980818930746002326F100BA
:10149000032D060063000D14635A80039307D002E6
:1014A0006384FC129385040013050D00EF10405D6A
:1014B000330CAC40635C8001130CFCFF9305090006
:1014C00013850C00E7800900E3180CFE03450D00AE
:1014D000E30805DC63C604009384F4FF638E5401C3
:1014E00093050900130D1D00E780090003450D0059
:1014F000130CFCFFE31005FEE35480DB93040002B1
:10150000130CFCFF9305090013850400E780090014
:10151000E3180CFE6FF0DFD8639008129304A0006C
:101520006FF01FE56394080E9307760093F787FF2B
:1015300003A6070083A6470013870400938787004C
:1015400093050900138509002326F100EF00001D13
:101550006FF01FD503C7170093851500930704008C
:101560006FF0DFD96390080A1305C100EFF0DFB018
:1015700013060500938605009304A000E3D205E05E
:101580002324B1002322A100930509001305D002F2
:10159000E780090003264100832681003306C0400E
:1015A000B337C000B306D040B386F6406FF05FDDBE
:1015B0006392080A9305090013055002E7800900A9
:1015C00013040D006FF0DFCD03450D00E31405F0AB
:1015D0006FF0DFF2635280039307D002138D4BB696
:1015E00013058002E390FCEC6FF0DFEE138706003A
:1015F000930704006FF01FDD13058002138D4BB6B7
:101600006FF05FED232661006FF01FF613060300F5
:101610006FF09FF1130603006FF01FE7130603003E
:101620006FF09FE1232661006FF09FE323266100A6
:10163000930480006FF0DFD3232661009304A000A1
:101640006FF01FD3232661006FF09FD52326610022
:101650006FF0DFD1232661006FF0DFF5130101FC8D
:10166000130341022324C10213060500371500604D
:101670002322B1022326D102130585FC9306030021
:1016800093050000232E11002328E102232AF102F2
:10169000232C0103232E110323266100EFF0DFBA70
:1016A0008320C101130500001301010467800000BD
:1016B000130101FB13038103232481022326A100CC
:1016C0001304050037150060232CC102232ED1021C
:1016D00013860500130545009305C100930603001A
:1016E000232611022322F1042320E10423240105EF
:1016F00023261105232E6100EFF01FB58327C100BB
:10170000238007000325C1008320C10233058540E3
:10171000032481021301010567800000130101FA0F
:10172000232C8104232A91041384060093040600C9
:101730002328210523263105130905009389050077
:1017400013060000930600001385040093050400AF
:1017500023225105232E1104232441052320610552
:10176000232E7103930A0700EF308059634E050E54
:1017700063585011B7670060130A000003AB07E21B
:1017800083AB47E26F008000138A070013850400D3
:101790009305040013060B0093860B00EF20907650
:1017A00093071A009304050013840500E39E57FD78
:1017B0001304010123268100EF10003013060500F9
:1017C00037150060938605001307A000130800007A
:1017D000930700009305C10013054500EFF01F8E2D
:1017E000B30A5041130700008327C100B387E70005
:1017F00083C6F7FF1307F7FF2380D700E396EAFEBF
:101800008327C100134AFAFF338A47019307E00296
:101810002300FA008327C100938717002326F100D5
:10182000637EF4000345040093850900130414004B
:10183000E70009008327C100E366F4FE8320C105A9
:101840000324810583244105032901058329C1045B
:10185000032A8104832A4104032B0104832BC1033F
:101860001301010667800000938509001305D0026B
:10187000E7000900B70700803344F4006FF05FEF22
:10188000930504001385040013040101232681003D
:10189000EF108022130605003715006093860500BF
:1018A00093070000130800001307A0009305C10070
:1018B00013054500EFF09F808327C1006FF05FF6AE
:1018C0002320B50067800000032505006780000025
:1018D00083270500B396B600B3C6F600B3F6C6007C
:1018E000B3C6F6002320D50067800000032505005D
:1018F0003375C5003355B500678000009395050129
:1019000093D505012310B50067800000035505003D
:101910001315050113550501678000008357050065
:10192000B396B6009397070193D70701B3C6D700C4
:1019300033F6C600B3C7C7009397070193D70701D3
:101940002310F500678000000355050013150501FD
:10195000135505013375C5003355B5001315050141
:10196000135505016780000093F5F50F2300B500BE
:1019700067800000034505001375F50F67800000C0
:1019800083470500B396B60093F7F70FB3C6D700A9
:1019900033F6C600B3C7C70093F7F70F2300F5006F
:1019A00067800000034505001375F50F3375C5000A
:1019B0003355B5001375F50F67800000130101FF63
:1019C00023248100232291002320210123261100BA
:1019D000130905002320B900138405002322C50044
:1019E00093840508130504009305000013044400C4
:1019F000EFF09FF7E31894FE8327490013071000C8
:101A00006380E70A63840704130720006394E702F6
:101A1000032509008320C1000324810083244100A1
:101A2000032901009305F0FF1305050813010101C7
:101A30006FF01FE98320C10003248100832441004B
:101A4000032901001301010167800000032509003B
:101A50009305F00F13050508EFF01FF103250900AA
:101A60009305F00F13054508EFF01FF0032509005B
:101A70009305F00F13058508EFF01FEF032509000C
:101A80008320C10003248100832441000329010035
:101A90009305F00F1305C508130101016FF0DFEC8A
:101AA00003250900370401009305F4FF1305050819
:101AB000EFF0DFE4032509009305F4FF8320C10064
:101AC00003248100832441000329010013054508F4
:101AD000130101016FF09FE29307F00163F4B70077
:101AE00067800000832705001395250093050600F5
:101AF0003305F5006FF0DFDC83274500130101FF9C
:101B000023248100232291002326110013071000B3
:101B10001304050093840500638CE708638E0702B5
:101B2000130720006390E702032505008320C1000E
:101B300003248100832441001305050A13010101D8
:101B40006FF01FD88320C10003248100832441004B
:101B500013010101678000000325050093F5F50FCF
:101B60001305050AEFF05FE00325040093D5840018
:101B700093F5F50F1305450AEFF01FDF0325040069
:101B800093D5040193F5F50F1305850AEFF0DFDD1A
:101B90000325040093D584018320C1000324810020
:101BA000832441001305C50A130101016FF0DFDB37
:101BB000032505009395050193D505011305050A35
:101BC000EFF0DFD30325040093D504018320C10087
:101BD00003248100832441001305450A13010101F8
:101BE0006FF0DFD183274500130101FF232481001B
:101BF0002326110023229100232021011307100026
:101C0000130405006380E70A6384070413072000B8
:101C10006380E702130500008320C10003248100D4
:101C200083244100032901001301010167800000A2
:101C3000032505008320C100032481008324410083
:101C40000329010013050509130101016FF0DFC726
:101C50000325050013050509EFF0DFD11309050081
:101C60000325040013054509EFF0DFD093040500B8
:101C70000325040013058509EFF0DFCF8327040057
:101C800013150501139484003364A4001385C70958
:101C9000EFF05FCE336424011315850133658500B1
:101CA0006FF09FF70325050013050509EFF01FC628
:101CB000930405000325040013054509EFF01FC533
:101CC00013150501336595006FF01FF58327450057
:101CD000130101FF232481002326110023229100F8
:101CE0002320210113071000130405006380E70A75
:101CF00063840704130720006380E70213050000D4
:101D00008320C100032481008324410003290100B2
:101D10001301010167800000032505008320C10035
:101D20000324810083244100032901001305050ACF
:101D3000130101016FF05FB9032505001305050AC2
:101D4000EFF0DFBC13090500032504001305450A65
:101D5000EFF0DFBB93040500032504001305850A9B
:101D6000EFF0DFBA832704001315050113948400F4
:101D70003364A4001385C70AEFF05FB9336424010C
:101D800013158501336585006FF09FF70325050066
:101D90001305050AEFF09FB793040500032504001F
:101DA0001305450AEFF09FB613150501336595003D
:101DB0006FF01FF5130101FE232C81000324450061
:101DC000232A9100232821012326310123244101C4
:101DD000232E1100930410009309050013890500B8
:101DE000130A06006306940C630A04069307200096
:101DF0006316F40403250500B39424011305050AB2
:101E0000EFF09FACB3E5A40063160A0093C7F4FF9C
:101E1000B3F5A70003A509008320C10103248101B4
:101E200083244101032901018329C100032A810080
:101E30001305050A130101026FF09FA88320C10159
:101E40000324810183244101032901018329C10065
:101E5000032A810013010102678000008327050027
:101E600013D43500131424001304040A3304F400BB
:101E700013050400EFF01FB093757900B395B4001B
:101E800063020A0AB3E5A50093F5F50F13050400F4
:101E90008320C1010324810183244101032901011D
:101EA0008329C100032A8100130101026FF0DFAB17
:101EB0008327050093D94500939929009389090A3E
:101EC000B389F90013850900EFF05FA4630E0A02DD
:101ED0009374F900B3159400B3E5A500939505013B
:101EE00093D50501138509008320C10103248101D5
:101EF00083244101032901018329C100032A8100B0
:101F0000130101026FF09F9F9375F900B315B400A0
:101F100093C5F5FFB3F5A5009395050193D505018C
:101F20006FF05FFC93C5F5FFB3F5A50093F5F50FD2
:101F30006FF0DFF5130101FF2324810023229100BC
:101F400023261100130710009304050013840500D5
:101F50006306E6026304060213072000631CE6041E
:101F600083270500139425003304F40013050400AF
:101F7000EFF05FA09375B5FF6F004002EFF09FE3B5
:101F800083A70400131424003304F4001305040091
:101F9000EFF05F9E9365450093F5F50F1305040080
:101FA0008320C10003248100832441001301010127
:101FB0006FF09F9B8320C100032481008324410094
:101FC00013010101678000009307F00163F4B7007B
:101FD0006780000083270500130101FF232481008F
:101FE000139425003304F400130504002326110084
:101FF000EFF05F98936585008320C100130504000E
:102000000324810093F5F50F130101016FF0DF95B3
:102010009307F00163F4B700678000008327050091
:10202000130101FF23248100139425003304F400DD
:102030001305040023261100EFF0DF93937575FF5D
:102040008320C10013050400032481001301010152
:102050006FF09F9183274500130101FF2324810026
:1020600023229100130710002326110013040500FA
:10207000B314B700638AE7086380070413072000DE
:102080006392E70203250500938504008320C100C5
:102090000324810083244100130505081301010175
:1020A0006FF01F828320C10003248100832441003C
:1020B00013010101678000000325050093850400DA
:1020C00013050508EFF05F8A0325040093D584000B
:1020D00013054508EFF05F890325040093D504013B
:1020E00013058508EFF05F880325040093D584016C
:1020F0008320C10003248100832441001305C50807
:10210000130101016FF05F8603250500938504002C
:1021100013050508EFF08FFE0325040093D5040195
:102120008320C10003248100832441001305450856
:10213000130101016FF08FFC630A05009307700023
:1021400063E6D700B72700006364F60067800000ED
:10215000130101FD232E31019389050023248102FF
:102160009375F60F130405001385890023261102C9
:1021700023229102232021039304060013890600E1
:10218000EFF08FFE13D654401376867FB365260199
:102190001385C900EFF04FFD138509012320340199
:1021A000EFF04FFD137525006304050203250400BD
:1021B00013054500EFF00FFC83270400A307A100DF
:1021C00013850701EFF00FFB13752500E31005FEE3
:1021D000230204008320C1020324810283244102DC
:1021E000032901028329C101130101036780000053
:1021F000630405066382050663000606130101FFFA
:102200002324810023229100232021012326110071
:1022100013040500938405003389C50003250400D9
:1022200013050501EFF00FF513751500E30805FE22
:1022300083C504000325040093841400EFF0CFF25B
:10224000E39E24FD8320C1000324810083244100F8
:10225000032901001301010167800000130101FE41
:10226000232E1100232C8100232A910023282101F1
:10227000232631016306050063840500631406020A
:10228000930400008320C10113850400032481010D
:1022900083244101032901018329C10013010102A3
:1022A0006780000013090500032505009309060057
:1022B0001384050013050501EFF0CFEB137515002E
:1022C000E30005FC930400006F008000E38C99FAA2
:1022D00083450400032509009384140013041400AB
:1022E000EFF08FE80325090013050501EFF08FE8F3
:1022F00013751500E31C05FC6FF0DFF8130101FEF8
:10230000232E1100232C8100232A91002328210150
:102310002326310163060500638405006314060269
:10232000130900008320C101130509000324810162
:1023300083244101032901018329C1001301010202
:1023400067800000130405000325050093090600BB
:102350009384050013050501EFF0CFE10347440026
:10236000937725003365E5002302A400E38A07FA8A
:10237000130900006F008000E38629FB0325040099
:10238000938414001309190013054500EFF08FDE44
:10239000A38FA4FE0325040013050501EFF08FDDD4
:1023A00003474400937725003365E5002302A4002A
:1023B000E39407FC6FF01FF763020506130101FFAA
:1023C00023229100232611002324810093840500F9
:1023D000638E050283C705001304050063880702A6
:1023E0000325040013050501EFF0CFD81375150080
:1023F000E30805FE83C5040003250400938414004C
:10240000EFF08FD683C70400E39C07FC8320C10054
:10241000032481008324410013010101678000002F
:10242000630C0500834745002302050013D52740B0
:1024300013757500678000001305F00F67800000BA
:10244000130101FE232E1100232C8100232A910069
:10245000232821012326310123244101938485006F
:10246000138405002320B500138A0600930510008D
:1024700093060000138504001309060013062000CC
:1024800093090700EFF0CFC4930600001306100075
:102490009305000013850400EFF08FC313050401BA
:1024A00093051000EFF0CFC193050A001305C40097
:1024B000EFF00FC19385090013050400EFF04FC042
:1024C00093060000630409009306100013850400BE
:1024D0008320C101032481018324410103290101D7
:1024E0008329C100032A81001306400093052000C0
:1024F000130101026FF0CFBD032505009306100004
:102500001386060093050000130585006FF04FBC8D
:102510000325050093060000130610009305000034
:10252000130585006FF0CFBA032505009306100050
:102530001306200093850600130585006FF04FB940
:102540000325050093051000130505016FF04FB733
:1025500003250500130545006FF00FB7032505009F
:102560006FF00FB6B305B5006378B5002300050022
:1025700013051500E31CB5FE67800000130101FF81
:1025800023229100232021012326110023248100EE
:10259000930405002320B50023A2C40013090600FC
:1025A0002324D500732440F13725000093177400CD
:1025B0003385A500930586003385A70093D53500A4
:1025C000EFF05FFA03A50400930519009395250029
:1025D000EFF05FF983A70400370720008320C100D4
:1025E0001314C400B387E70033848700232004005A
:1025F0008324410003248100032901001301010108
:1026000067800000732740F183270500B70620008C
:102610001317C700B387D700B387E70023A0B7001D
:1026200067800000F32740F18326050013D73500AB
:10263000372600003307C7003307D700939777008A
:10264000B307F70083C6070093F575001307100062
:102650003317B7003367D7001377F70F2380E700EE
:1026600067800000732740F18327050093D635006B
:1026700037260000B386C600B386F600131777002E
:102680003387E6008346070093F575009307100033
:10269000B397B70093C7F7FFB3F7D70093F7F70FD8
:1026A0002300F7006780000083278500638A070006
:1026B0008327050093952500B385F50023A0C50069
:1026C00067800000F32740F103270500B7062000CC
:1026D000938646003307D7009397C700B307F700E8
:1026E00003A5070067800000F32740F103270500DA
:1026F000B7062000938646003307D7009397C7009C
:10270000B307F70023A0B70067800000B3C7A50098
:1027100093F73700B308C5006398070E930730009E
:1027200063F4C70E93773500130705006398070419
:1027300013F8C8FF930708FE636CF706637C070372
:10274000938605009307070003A6060093874700BA
:102750009386460023AEC7FEE3E807FF9347F7FFE3
:10276000338807011378C8FF1308480033070701AF
:10277000B3850501636E17096780000083C60500F5
:102780001307170093773700A30FD7FE9385150023
:10279000E38007FA83C60500130717009377370015
:1027A000A30FD7FE93851500E39A07FC6FF05FF83F
:1027B00083A3050083A2450083AF850003AFC50056
:1027C00083AE050103AE450103A3850103A6C50140
:1027D000938545021307470283A6C5FF232E77FC86
:1027E000232057FE2322F7FF2324E7FF2326D7FFCA
:1027F0002328C7FF232A67FE232CC7FE232ED7FEDC
:10280000E368F7FA6FF09FF313070500E37615F717
:1028100083C705001307170093851500A30FF7FE64
:10282000E36817FF678000001308F0001307050036
:10283000637EC8029377F7006390070A63920508E6
:10284000937606FF1376F600B386E6002320B700E2
:102850002322B7002324B7002326B700130707015C
:10286000E366D7FE6314060067800000B306C84025
:102870009396260097020000B38656006780C60034
:102880002307B700A306B7002306B700A305B700C8
:102890002305B700A304B7002304B700A303B700C0
:1028A0002303B700A302B7002302B700A301B700B8
:1028B0002301B700A300B7002300B7006780000022
:1028C00093F5F50F93968500B3E5D5009396050132
:1028D000B3E5D5006FF0DFF693962700970200006E
:1028E000B386560093820000E78006FA93800200C8
:1028F000938707FF3307F7403306F600E378C8F6FF
:102900006FF0DFF33367B5009303F0FF1377370001
:1029100063100710378E7F7F130EFEF70326050026
:1029200083A60500B372C6013363C601B382C20138
:10293000B3E26200639272106316D6080326450064
:1029400083A64500B372C6013363C601B382C201D8
:10295000B3E26200639E720C6316D60603268500FE
:1029600083A68500B372C6013363C601B382C20178
:10297000B3E262006398720C6316D6040326C500A6
:1029800083A6C500B372C6013363C601B382C20118
:10299000B3E262006392720C6316D602032605014D
:1029A00083A60501B372C6013363C601B382C201B7
:1029B000B3E26200639C720A1305450193854501E9
:1029C000E30ED6F41317060193970601631EF70072
:1029D0001357060193D706013305F7409375F50F9A
:1029E00063900502678000001357070193D7070122
:1029F0003305F7409375F50F639405006780000079
:102A00001377F70F93F7F70F3305F7406780000050
:102A10000346050083C605001305150093851500C0
:102A20006314D600E31606FE3305D6406780000027
:102A30001305450093854500E31CD6FC13050000F3
:102A4000678000001305850093858500E312D6FC9E
:102A500013050000678000001305C5009385C500BD
:102A6000E318D6FA1305000067800000130505017E
:102A700093850501E31ED6F813050000678000006A
:102A8000638805028347050063840702B305B50028
:102A9000930705006F00C00003C707006306070027
:102AA00093871700E39AB7FE3385A740678000003D
:102AB0001305000067800000B767006003A687E287
:102AC00083A6C7E2130101FF2326110023248100FE
:102AD00023222101232031011309050093890500D8
:102AE000EF105042EF20405B13040500EF2040330D
:102AF000B767006003A607E383A647E3EF109040A3
:102B00001306050093860500130509009385090047
:102B1000EF109039EF2040588320C1009305040046
:102B200003294100032481008329010013010101CD
:102B300067800000930E05001383060093080600CB
:102B4000130E050013880500639C060C63F6C5127E
:102B5000B70701006370F6229307F00F63F4C70014
:102B60001303800037670060B3576600130707CF71
:102B7000B387E70083C7070033836700930700022A
:102B8000B3876740638C07003397F50033D36E003B
:102B9000B318F6003368E300339EFE0013D6080135
:102BA0003355C8029396080193D6060193570E0138
:102BB0003377C802B385A602131707013368F700FD
:102BC000637CB800330818019307F5FF63641801AC
:102BD0006360B83C138507003308B8403357C80218
:102BE000131E0E01135E0E013378C802B386E6028F
:102BF000131808013368C801637CD80033880801C2
:102C00009307F7FF636E18311307E7FF637AD83035
:102C1000131505013365E50093050000678000008A
:102C200063E4D512B707010063E6F6123707000127
:102C30009307800163F4E6009307000137650060A5
:102C400033D7F600130505CF3307A70083480700E5
:102C5000130E0002B388F800330E1E4163160E12E5
:102C60009305000013051000E36A03FB33B5CE00A3
:102C700013451500678000006316060093081000D6
:102C8000B3D8C802B707010063EEF80CB70700011C
:102C90001303800163F4F800130300013767006039
:102CA000B3D76800130707CFB387E70083C70700D0
:102CB0003383670093070002B3876740639C071A5A
:102CC000939F08013387154113DF080193DF0F013C
:102CD0009305100093570E013355E7033377E7034D
:102CE000B306F50313170701B367F70063FCD700BA
:102CF000B38717011307F5FF63E4170163E4D728CF
:102D000013050700B387D74033D6E703131E0E0120
:102D1000135E0E01B3F7E703B30FF60393970701B2
:102D2000B3E7C70163FCF701B387F8001307F6FFA9
:102D300063E4171F1306E6FF63F0F71F1315050181
:102D40003365C5006780000093050000130500008F
:102D5000678000009308F00FB3B7D800939737004F
:102D60006FF0DFED9307F00FE3FA17F31303800022
:102D70006FF0DFF2B707000113038001E374F6DEA2
:102D8000130300016FF01FDE33581601B396C6011E
:102D90003368D800135F0801B3D6150133D3E603B7
:102DA0009317080193D70701B395C501B3D81E0146
:102DB000B3E5B80013D705013316C601B3F6E60331
:102DC000338567029396060133E7E600637AA7002E
:102DD000330707019306F3FF637607191383060091
:102DE0003307A740B356E7039395050193D5050133
:102DF0003377E703B388D70213170701B367B70028
:102E000063FA1701B38707011387F6FF63F4071509
:102E10009306070013150301370F01003365D50032
:102E20001307FFFFB376E500135805013377E6007B
:102E3000135606013383E602B3871741B386C602F1
:102E4000935503013307E802B386E600B386D50045
:102E50003306C80263F4E6003306E60113D7060121
:102E60003306C70063E2C70E6380C70C93050000FA
:102E700067800000B398F80033D6650013DF0801BF
:102E80003355E603939F080193DF0F013397F50055
:102E9000339EFE0033D36E003367E3009355070182
:102EA000B376E603B387AF0293960601B3E6B600A6
:102EB00063FEF600B38616011306F5FF63E0160DF8
:102EC00063FEF60A1305E5FFB3861601B386F640E6
:102ED000B3D7E6031313070113530301B3F6E60355
:102EE0003386FF021397060133676700637EC700CE
:102EF000330717019386F7FF636E1707637CC706D6
:102F00009387E7FF33071701931505013307C74080
:102F1000B3E5F5006FF01FDC130607006FF01FE24A
:102F2000138707006FF0DFCE370701001307F7FFA5
:102F3000B3F6E600939706013373E300B39ECE0128
:102F4000B3876700E3F4FEF21305F5FF9305000075
:102F50006FF01FF2E3FE17EB9386E6FFB3870701DE
:102F60006FF05FEBE37CA7E61303E3FF3307070192
:102F70006FF01FE7938706006FF01FF91305060037
:102F80006FF0DFF41305E5FFB38717016FF09FD7EC
:102F90001305E5FF330818016FF01FC4938806007E
:102FA00013080600930E0500138305006398060CB2
:102FB00063FAC512B7070100636CF61EB70700017C
:102FC000930880016374F60093080001376700607E
:102FD000B3571601130707CFB387E70083C607006F
:102FE000130E0002B3881601330E1E41630C0E004F
:102FF000B395C501B35815013318C60133E3B800C2
:10300000B31EC50113560801B357C30213150801B7
:103010001355050113D70E01B376C302B307F502AA
:103020009396060133E7E6006378F700330707015C
:1030300063640701636CF7363307F740B356C70282
:1030400093970E0193D707013377C7023305D50253
:1030500013170701B367F70063FAA700B3870701E7
:1030600063E6070163F4A700B38707013385A74030
:103070003355C5019305000067800000E3EED5FEDF
:10308000B707010063E6F6103707000193078001D8
:1030900063F4E60093070001376E0060130E0ECF55
:1030A00033D7F6003307C701034F0700130E0002A2
:1030B000330FFF00330EEE4163140E1063E6680019
:1030C0009307050063EA0E01B307C540B385D540F9
:1030D000B336F5003383D54013850700930503000D
:1030E0006780000063160600130810003358C802FA
:1030F000B70701006366F80AB7070001930880016B
:103100006374F8009308000137670060B357180133
:10311000130707CFB387E70083C70700130E00022A
:10312000B3881701330E1E4163100E1C931708015C
:10313000B38505411356080193D7070113D70E0134
:10314000B3D6C502B3F5C502B386F6029395050161
:1031500033E7E500637AD7003307070163660701A9
:103160006374D700330707013307D7403355C702CD
:10317000939E0E0193DE0E013377C7023305F502ED
:1031800013170701B367D701E3F2A7EE6FF01FED46
:10319000130FF00FB337DF00939737006FF0DFEFB7
:1031A0009307F00FE3F207F7930880006FF0DFF565
:1031B0009307F00FE3FCC7E0930880006FF01FE176
:1031C000B357E601B396C601B3E6D700B3D8E5011D
:1031D00013D7060133D3E802939F0601B357E501E5
:1031E00093DF0F01B395C501B3E5B700B317C6016F
:1031F00013D805013315C501B3F8E80233866F0211
:103200009398080133E80801637AC8003308D800AE
:103210009308F3FF6374D818138308003308C84079
:103220003356E8029395050193D505013378E802FA
:10323000B38FCF02131708013367B700637AF70122
:103240003307D7009305F6FF6372D7141386050082
:1032500013130301B70501003363C3009388F5FF1F
:10326000B37E130113D6070113530301B3F81701FB
:10327000B3821E033307F741B38ECE0213D8020187
:10328000B3081303B38E1E013308D8013306C302FB
:10329000637418013306B600B70801009388F8FF7D
:1032A000935508013378180113180801B3F212017D
:1032B000B385C50033085800636EB70A630CB70EB8
:1032C000B305B74093070800B307F5403335F50061
:1032D000B385A540339FE50133D5C7013365AF0002
:1032E000B3D5C501678000003318C80133D7150175
:1032F00013560801B356C7029317080193D7070165
:10330000B3581501B31EC501B395C501B3E5B800A7
:1033100093D805013377C7023385D7029316070187
:10332000B3E6160163FAA600B386060163E606015A
:1033300063F4A600B3860601B386A64033D7C6025F
:103340009398050193D80801B3F6C6023387E702C4
:1033500093950601B3E5150163FAE500B385050110
:1033600063E6050163F4E500B3850501B385E54037
:103370006FF0DFDCB307F840B385D5403338F80091
:10338000B3850541B305B7406FF01FF4E370F7ED67
:103390001306E6FF3307D7006FF09FEBE37EC8E626
:1033A0001303E3FF3308D8006FF05FE7330707012B
:1033B0006FF09FC8E36005FD9307080093050000C8
:1033C0006FF09FF083270500130710006372F70E5C
:1033D00083A60500637CD70C13084000638C071597
:1033E0006386060D13082000638406116380070DB1
:1033F0000323850083A78500930EF001032EC500EB
:10340000B306F340B3D8D64133C8D80033081841C7
:1034100083A8C50063D00E0B63D867109308000023
:103420000327450083A74500630AF70AB3071E4137
:1034300063040700B387C84163CC0710232206004A
:10344000232466002326F600B70500401387F7FF04
:103450009385E5FF63E4E502032786001307F7FF82
:10346000939717009386F7FF130507001307F7FFDD
:10347000E3F8D5FE2326F6002324A6001307300028
:103480002320E6001305060063D407020327860005
:1034900093D6170093F71700B3E7F600130717004A
:1034A0002326F6002324E60067800000138505002C
:1034B00067800000635AD00A331707011307F7FF2C
:1034C00033771701B3D708013337E000B3E8E700DB
:1034D0000327450083A74500E31AF7F4B3071E014D
:1034E0002322E600232466002326F6006FF01FF94E
:1034F000E390D7FC2320F600832745002322F60023
:10350000032785008327450083A645002324E60082
:103510000327C500B3F7D7002322F6002326E600D1
:10352000130506006780000013830700130E0000D8
:103530006FF01FEFE39EF6F60327450083A74500D3
:10354000E308F7F637650060130545CC6780000097
:10355000B307F040130710002322E600232466007F
:103560002326F6006FF05FEEE38C06EAB316070140
:103570009386F6FFB3F6C601B3570E01B336D000FB
:103580003303030133EED7006FF09FE903270500F3
:10359000130610008327C50083264500637AE608DA
:1035A000930540006300B708930520006302B70449
:1035B0006380070403278500930520F8634CB70A4E
:1035C0001306F0076340E60633F6C70093050004D0
:1035D0006304B6089387F70363C807081307F70760
:1035E0009397270093D797001377F70F6F00C000CA
:1035F0001307000093070000370580001305F5FF4F
:10360000B3F7A700370580801305F5FF131777017F
:1036100033F5A7003365E5009397F6013365F500B0
:10362000678000001307F00F930700006FF0DFFCC6
:10363000370740001306F7FF93D77700B3F7C700AB
:10364000B3E7E700370780001307F7FFB3F7E7009A
:103650001307F00F6FF05FFA13F60708E30E06F694
:10366000B387B7006FF05FF793D71700130707080A
:103670006FF01FF7B385E54013079001E34AB7F6F3
:103680003317B6001307F7FF3377F7003337E0003F
:10369000B3D7B700B3E7E70013F6F7071307000443
:1036A0006314E60213F7070863040700938707040F
:1036B0003707004033B7E70013962700935796006B
:1036C000134717006FF05FF39387F7036FF05FFE08
:1036D00083463500035725008327050093D67600DF
:1036E0001357770023A2D500B70680009386F6FF14
:1036F0001377F70FB3F7D700631C07026380070641
:103700001307300023A0E50093977700130710F804
:103710003706004093971700930607001307F7FF3B
:10372000E3EAC7FE23A4D50023A6F50067800000C6
:103730009306F00F630AD702130717F893977700E1
:10374000B7060040B3E7D70023A4E5001307300015
:1037500023A0E50023A6F500678000009307200062
:1037600023A0F50067800000638607021397970087
:10377000635807021307100023A0E500370700E095
:1037800093977700130707F8B3F7E70023A6F50030
:10379000678000009307400023A0F50067800000C9
:1037A00023A005006FF09FFD130101FB2324A1005E
:1037B0002326B1001305810093050101232611047E
:1037C000EFF01FF1930501021305C100EFF05FF068
:1037D000130601039305010213050101EFF09FBEDB
:1037E000EFF0DFDA8320C1041301010567800000D8
:1037F000130101FB2324A1002326B100130581003E
:103800009305010123261104EFF09FEC93050102BB
:103810001305C100EFF0DFEB83274102130601031C
:103820009305010293C71700130501012322F1023A
:10383000EFF05FB9EFF09FD58320C10413010105BC
:1038400067800000130101FB2324A1002326B1009F
:10385000130581009305010123261104EFF05FE7B2
:10386000930501021305C100EFF09FE683270101D4
:103870009306100063F6F60E0327010263FAE60AC8
:1038800093064000638AD70C6300D70A9306200092
:103890006388D70C630ED7088327C1018325C10233
:1038A000032781028326810133B6B7020328410230
:1038B000B386E6000327410113852600232CA102CD
:1038C000330707413337E000232AE102B387B70209
:1038D00013070600635C060C137716009386360008
:1038E000631C070213571600232CD1029376F707A7
:1038F00013060004638AC60893073000232EE102F2
:103900002328F10213050103EFF05FC88320C104EF
:10391000130101056780000093D717003707008067
:10392000B3E7E7006FF01FFC13072000638AE70688
:10393000032741028327410113050102B387E740B2
:10394000B337F0002322F102EFF05FC48320C104FB
:103950001301010567800000930720006302F7044C
:10396000032741028327410113050101B387E74083
:10397000B337F000232AF100EFF05FC18320C104C8
:10398000130101056780000093760708E39606F6A9
:10399000E38407F63307C700137707F86FF0DFF506
:1039A00037650060130545CC6FF01FF63706004001
:1039B000E37EC7F2938616006F000001939717000D
:1039C0009386F6FF6370C7021317170093850600EE
:1039D000E3D607FE13671700939717009386F6FF49
:1039E000E364C7FE232CB1026FF05FF0130101FC0A
:1039F0002324A1002326B1001305810093050101B2
:103A0000232E1102EFF0DFCC930501021305C10054
:103A1000EFF01FCC832601019307100063F6D7084F
:103A20000326010263F6C70E0327410183254102E5
:103A30009387E6FF93F7D7FF3347B700232AE100C8
:103A4000638E070693074000630AF60813072000F9
:103A5000630AE60A03278101832681028327C101C5
:103A60000326C1023307D740232CE10063E0C706D9
:103A70001307F00193050000B70600401307F7FF96
:103A800063E6C700B3E5D500B387C74093D61600F9
:103A900093971700E31407FE13F7F5079306000446
:103AA0006306D704232EB10013050101EFF01FAE0A
:103AB0008320C1031301010467800000E396C6FE62
:103AC00037650060130545CC6FF05FFE1307F7FF05
:103AD00093971700232CE1006FF09FF9232E01002C
:103AE000232C0100130501016FF05FFC13F705089B
:103AF000E31A07FAE38807FAB385D50093F505F8CA
:103B00006FF05FFA2328F100130501016FF01FFA2F
:103B1000130501026FF09FF90327050093071000BA
:103B20001306050063FEE70683A60500138507005C
:103B300063F0D704930740006308F704638CF60230
:103B4000930720006302F7026382F604832746008E
:103B500003A74500638AE7043335F0003305A0402E
:103B600013651500678000006396E60013050000EA
:103B70006780000003A54500133515003305A040FC
:103B80001365150067800000638AE604032546007C
:103B90003335A0003305A040136515006780000091
:103BA00013850700678000008326860003A7850031
:103BB000E344D7FA63CCE6008326C60003A7C5001A
:103BC000E36CD7F813050000E3F4E6FA13B5170029
:103BD0003305A040136515006780000083A74500EA
:103BE000032546003385A74067800000130101FCD0
:103BF0002324A1002326B1001305810093050101B0
:103C0000232E1102EFF0DFAC930501021305C10072
:103C1000EFF01FAC9305010213050101EFF0DFEF98
:103C20008320C1031301010467800000130101FC1C
:103C30002324A1002326B10013058100930501016F
:103C4000232E1102EFF0DFA81305C1009305010236
:103C5000EFF01FA803270101930710001305F0FFE1
:103C600063FEE700032701021305F0FF63F8E70096
:103C70009305010213050101EFF01FEA8320C10340
:103C800013010104678000006FF05FFA130101FC6B
:103C90002324A1002326B10013058100930501010F
:103CA000232E1102EFF0DFA21305C10093050102DC
:103CB000EFF01FA28327010113051000637CF500BC
:103CC000832701026378F5009305010213050101C2
:103CD000EFF09FE48320C10313010104678000001B
:103CE0006FF0DFFA6FF09FFA6FF05FFA130101FCDB
:103CF0002324A1002326B1001305810093050101AF
:103D0000232E1102EFF0DF9C1305C1009305010281
:103D1000EFF01F9C83270101130510006376F50067
:103D200003250102133525008320C103130101047B
:103D300067800000130101FE9357F501130730005F
:103D4000232E1100232C81002320E1002322F100E7
:103D500063120502930720002320F10013050100E0
:103D6000EFF0DF828320C1010324810113010102EE
:103D7000678000009307E0012324F10063480502F7
:103D80001304050013050400EF10002A9307F5FF44
:103D9000638C07021307E0013315F400B307F74003
:103DA0002326A1002324F1006FF05FFBB7070080FA
:103DB0006300F5023304A04013050400EF10C02691
:103DC0009307F5FFE39807FC232681006FF01FF9A6
:103DD000B767006003A587E46FF0DFF8130101FE09
:103DE000232E1100232C8100232A9100232201007D
:103DF000630A0504930730009304E0012320F100D7
:103E00001304050023249100EF1000229307F5FF0F
:103E100063000504638C07043314F400B384F44096
:103E2000232681002324910013050100EFF00FF6F3
:103E30008320C10103248101832441011301010274
:103E400067800000930720002320F1006FF0DFFD62
:103E5000937714001354140033E487009307F001A0
:103E6000232681002324F1006FF01FFC232681000C
:103E70006FF09FFB130101FD2326A10093050101B3
:103E80001305C10023261102EFF09F84832701014F
:103E900013072000637EF70413074000638AE700DE
:103EA00003258101634605049307E00163D0A7025F
:103EB0008327410137050080639407001345F5FF10
:103EC0008320C1021301010367800000B387A7406C
:103ED000032741010325C1013355F500E30207FE25
:103EE0008320C1023305A040130101036780000055
:103EF0008320C10213050000130101036780000045
:103F0000130101FD2326A100930501011305C10042
:103F100023261102EFF0CFFB832741011305010196
:103F200093B71700232AF100EFF04FE68320C10278
:103F30001301010367800000130101FE2320A1008B
:103F400013050100232E11002322B1002324C100F8
:103F50002326D100EFF08FE38320C101130101027A
:103F600067800000130101FD2326A10093050101D4
:103F70001305C10023261102EFF08FF58327C1013D
:103F80000326810183254101032501011397E701E0
:103F900093D72700EF10C0008320C1021301010353
:103FA00067800000832705009306100063F0F61277
:103FB00003A7050063FAE610930640006380D72448
:103FC0006304D710930620006300D71C638ED70EBE
:103FD0000323850003AF8500930FF00383260501BB
:103FE0003308E3419357F84133C707013307F740DC
:103FF000832E450183A8050103AE450163DAEF0C6A
:1040000063566F1E93080000130E00000325450041
:1040100083A745006308F5106300051CB387D840EB
:10402000B3B8F800B306DE41B386164163C6061E78
:1040300023220600232466002328F600232AD60024
:104040001385F7FF9385F6FF3337F5003307B70085
:10405000B70500106378B70E9385F5FF6300B726A8
:104060000325860037030010130EF3FF1305F5FF39
:10407000930EE0FF6F008000630CC71513D7F701A4
:104080009395160093971700B365B7001388F7FF51
:104090009388F5FF3337F80033071701938605003F
:1040A000930805001305F5FFE36867FC2328F60075
:1040B00093073000232AB600232416012320F6009C
:1040C0001305060067800000138505006780000067
:1040D000635C001993770702638407169307100047
:1040E000335FEE00B397E700930F00001307000063
:1040F0001308F7FF9387F7FF3337E8003307F7001C
:10410000B3781801B377C701B3E7F800B337F0000D
:10411000B368FF000325450083A74500138E0F00F9
:10412000E31CF5EEB387160133B7D700B386CE0193
:10413000B306D7002322A600232466002328F60016
:10414000232AD600130730002320E600370700207B
:1041500063E8E602832586001395F60113D717005E
:104160003367E50093F71700B367F70093D616009F
:10417000138715002328F600232AD6002324E600FF
:104180001305060067800000E392E7F42320F600A1
:10419000832745002322F600032785008327450057
:1041A00083A645002324E6000327C500B3F7D70004
:1041B0002326E600032705012328E60003274501FF
:1041C0002322F60013050600232AE600678000007C
:1041D000E3F60EEB6FF09FEDB387164133B7F600B1
:1041E000B386CE41B386E6406FF05FE413030F0061
:1041F00093060000930E00006FF05FE1E318F7EC08
:104200000327450083A74500E302F7EC376500600C
:10421000130585CD67800000B307F0403337F00009
:10422000B306D040B386E640130710002322E60011
:10423000232466002328F600232AD6006FF05FE0CF
:104240001348F7FF93171E00B397070133DFE80009
:104250001308100033EFE701B35FEE00930700008F
:104260003317E8006FF0DFE8E30208DA937707021C
:104270003303E30063820706B3DFEE00930200001E
:104280006394070493071000130F00003397E700AF
:104290001308F7FF3337E8009307FFFFB307F70072
:1042A0003378D800B3F6D701B366D800B337D0005F
:1042B000B3E6FF00938E02006FF05FD51307E0FFB7
:1042C000E370A7DA6FF01FE893071000339FE70051
:1042D000130700006FF0DFFB93971E001348F7FFF2
:1042E000B3970701B3DFE600B3EFF701B3D2EE00F7
:1042F0006FF05FF983270500930510008326050101
:10430000032745010326450063FAF50E1308400014
:10431000638E070D1308200063820707B3E7E600EA
:10432000638E070483278500130520C063C0A7128E
:104330009305F03F63CCF50A93F5F60F13050008DB
:104340006388A50E9385F607B3B6D5003387E600DC
:1043500093860500B7050020637EB7069387F73F75
:104360009315870193D6860013174700B3E6D5004F
:104370001357C70093F7F77F6F0000019307000002
:104380009306000013070000370810009305000093
:10439000138506001308F8FFB706F0FFB3F6B60062
:1043A0003377070133E7E60093964701B70710809C
:1043B0009387F7FFB377F70037070080B3E7D7009D
:1043C0001347F7FF1316F601B3F7E700B3E5C7008D
:1043D000678000009315F70193D61600B3E6D50069
:1043E00013571700938707406FF09FF79307F07FED
:1043F00093060000130700006FF01FF9B7050800CF
:10440000935787001385F5FFB3F7A70013158701AE
:1044100033E7B700B70710009387F7FF93D68600FE
:104420003377F700B366D5009307F07F6FF0DFF5C1
:1044300093F50610E38005F2B385A600B3B6D50068
:104440003387E600938605006FF0DFF0B307F54091
:1044500013058003E344F5F213F507026306050A2A
:104460003358F700B395F500930800009307000058
:104470001385F7FFB337F5009385F5FFB385B700D4
:10448000B376D50033F7E50033E7E600B336E00056
:10449000B367D80093F6F70F13070008639AE60294
:1044A00013F707106316070893D687001395880142
:1044B00013974800B7050010B366D5001357C7001F
:1044C0009307100063ECB80293F717006FF0DFEB6F
:1044D0009386F707B3B7F600B38517019397850165
:1044E00093D686001397450037050010B3E6D70032
:1044F0001357C70093071000E3F8A5FC93070000CB
:1045000093F717006FF05FE813C5F7FF93151700D7
:10451000B395A50033D8F6001305100033E8050164
:10452000B358F70093050000B317F5006FF05FF480
:10453000938607086FF01FFA0347750083566500DE
:10454000832745001356770093D6460003270500BE
:1045500023A2C500370610001306F6FF93F6F67F78
:10456000B3F7C700639C0604B366F70063860608CA
:104570009356870193978700B3E7F60093063000C0
:1045800023A0D50013178700930610C0370500102D
:104590001356F70193971700B367F6001317170028
:1045A000138606009386F6FFE3E4A7FE23A4C50066
:1045B00023A8E50023AAF500678000001306F07F1A
:1045C0006382C6041356870193978700B367F6008A
:1045D000938616C03706001013178700B3E7C7008D
:1045E00023A4D5009306300023A0D50023A8E5001E
:1045F00023AAF500678000009307200023A0F500A0
:1046000067800000B366F700638E06029396C700CA
:1046100063D006049306100023A0D50093568701AB
:1046200093978700B3E7F600B70600F89386F6FF86
:1046300013178700B3F7D70023A8E50023AAF500D6
:10464000678000009307400023A0F500678000000A
:1046500023A005006FF09FFC130101F92324A100A2
:104660002326B1001305810093058101232611063D
:10467000232AD1002328C100EFF01FEC930501038A
:1046800013050101EFF05FEB1306810493050103AD
:1046900013058101EFF01F91EFF0DFC58320C10604
:1046A0001301010767800000130101F92324A10011
:1046B0002326B100130581009305810123261106ED
:1046C000232AD1002328C100EFF01FE7930501033F
:1046D00013050101EFF05FE6832741031306810410
:1046E0009305010393C7170013058101232AF102E3
:1046F000EFF05F8BEFF01FC08320C10613010107AD
:1047000067800000130101F92324A1002326B100D2
:104710001305810093058101232AD1002326110668
:104720002328C100EFF05FE19305010313050101A8
:10473000EFF09FE0832781019306100063FCF616DB
:104740000327010363F0E614930640006380D71645
:104750006306D71293062000638ED7146304D71222
:10476000032581020327C102832701048328410412
:104770003306F702338EA80233B3A802B306C6018C
:1047800033B6C600B335F702B38565003306B6000D
:1047900033081703B385A7023337170333B5A702CE
:1047A00063606614630CC3129307000013030000D8
:1047B000B386A60063F4A600930710008328810344
:1047C00003250102330806013336C80033051501FD
:1047D0003306E6008328C10103274103B307F8002D
:1047E00033066600B388E84033B807011303450079
:1047F000B33810013307C8002328610423261105AC
:10480000B70E002013065500B70F00806368D7115C
:1048100013F817001315F70193D717001357170054
:10482000139EF60113D3150093D81600130F06003C
:1048300063060800B3656E00B3E6F801B367F500E0
:1048400013061600E376D7FD2328E10513F6F70FCC
:1048500013050008630CA608232CF104930730000D
:10486000232EE1042324F10413058104EFF09FA813
:104870008320C10613010107678000001307200091
:104880006388E708032741038327C1011305010358
:10489000B387E740B337F000232AF102EFF09FA57A
:1048A0008320C106130101076780000093072000E1
:1048B0006300F706032741038327C1011305810124
:1048C000B387E740B337F000232EF100EFF09FA24B
:1048D0008320C1061301010767800000E3F6C6EDDF
:1048E00093070000130310006FF09FEC13F60710FE
:1048F000E31406F6B3E6D500E38006F6B386A70018
:10490000B3B7F6003387E70093F706F06FF0DFF4F4
:1049100037650060130585CD6FF05FF5370E001029
:1049200013053500E374C7F313D8F7011316170006
:104930003366C80093D8F5011398160013030500D9
:10494000939717001307060063D4060093E7170038
:1049500093951500B3E608011305F5FFE366C6FD60
:10496000232861046FF09FEE130101FB2320A100B7
:104970002322B10013050100930501012324C10086
:10498000232611042326D100EFF01FBB93058102DB
:1049900013058100EFF05FBA0326010193071000B1
:1049A00063FAC70E8326810263FED71403274101F1
:1049B0008325C1029307E6FF93F7D7FF3347B7007C
:1049C000232AE1006382070E930740006386F60EF8
:1049D000130720006382E612832601030327810167
:1049E000832741028328C1033307D740232CE100EA
:1049F000832601028322810363E617016390F80294
:104A000063FE560013D6F601939717001307F7FFBE
:104A1000B367F60093961600232CE1001305D0032C
:104A2000930E0000130F000013080000B7050010DC
:104A3000139EF501135318001305F5FF63E41703E4
:104A40003387564033B6E600B38F17416394F800BE
:104A500063EA560093060700B387CF40B3EE0E011A
:104A6000336FBF0013D6F6011397170033686E003B
:104A700093D51500B367E60093961600E31A05FA7E
:104A800013F7FE0F130600086306C7042320D103A3
:104A90002322E10313050101EFF0DF858320C10428
:104AA0001301010567800000E316D6FE376500603C
:104AB000130585CD6FF05FFE13070000930700001C
:104AC0002320E1022322F102232C0100130501011E
:104AD0006FF09FFC13F70E10E31A07FAB3E7F60026
:104AE000E38607FAB387CE00B3BED701338FEE015A
:104AF00093FE07F06FF09FF92328F10013050101E1
:104B00006FF09FF9130581026FF01FF9032705006D
:104B1000930710001306050063F2E70883A605005B
:104B20001385070063F2D70493074000630CF70472
:104B30006380F60493072000630AF7026386F60495
:104B40008327460003A74500638EE7043335F00052
:104B50003305A04013651500678000006394E600EC
:104B6000636AB6061305000067800000E38CE6FE6A
:104B700003A54500133515003305A0401365150046
:104B8000678000006380E606032546003335A000F9
:104B90003305A040136515006780000013850700EA
:104BA000678000008326860003A78500E340D7FACC
:104BB00063C2E6020327460183A6450103260601D8
:104BC00083A50501E3E4E6F86314D700E3E0C5F844
:104BD000E376D7F813B517003305A0401365150029
:104BE0006780000083A74500032546003385A74062
:104BF00067800000130101FB2320A1002322B100E4
:104C00001305010093050101232611042324C1008B
:104C10002326D100EFF05F929305810213058100F6
:104C2000EFF09F919305810213050101EFF01FEE54
:104C30008320C1041301010567800000130101FBFB
:104C40002320A1002322B1001305010093050101D7
:104C5000232611042324C1002326D100EFF0DF8D89
:104C60001305810093058102EFF01F8D03270101D9
:104C7000930710001305F0FF63FEE700032781028E
:104C80001305F0FF63F8E7009305810213050101A6
:104C9000EFF0DFE78320C104130101056780000006
:104CA0006FF0DFF9130101FB2320A1002322B100E3
:104CB0001305010093050101232611042324C100DB
:104CC0002326D100EFF05F87130581009305810251
:104CD000EFF09F868327010113051000637CF50028
:104CE000832781026378F500930581021305010192
:104CF000EFF0DFE18320C1041301010567800000AC
:104D00006FF05FFA6FF01FFA6FF0DFF9130101FB2C
:104D10002320A1002322B100130501009305010106
:104D2000232611042324C1002326D100EFF0DF80C5
:104D30001305810093058102EFF01F808327010195
:104D4000130510006376F500032581021335250055
:104D50008320C1041301010567800000130101FDD8
:104D60009357F501130730002326110223248102F3
:104D70002324E1002326F10063120502930720009B
:104D80002324F10013058100EFF0CFD68320C10268
:104D9000032481021301010367800000634C0502B4
:104DA0001304050013050400EF0000281305D501C6
:104DB00093770502638007043314A400232E810037
:104DC000232C01009307C0033385A7402328A100AB
:104DD0006FF05FFBB7070080630CF5023304A0405F
:104DE00013050400EF0040241305D5019377050255
:104DF000E39407FC935714001347F5FFB3D7E7007C
:104E00003314A400232EF100232C81006FF09FFBAC
:104E1000B767006003A587E383A5C7E36FF01FF7BB
:104E2000130101FD23261102232481022326010000
:104E300063060506930730002324F10013040500E0
:104E4000EF00801E1305D50193770502638A0702E0
:104E50003314A400232E8100232C01009307C003E8
:104E60003385A7402328A10013058100EFF08FC8E8
:104E70008320C10203248102130101036780000023
:104E8000935714001347F5FFB3D7E7003314A4007A
:104E9000232EF100232C81006FF05FFC930720008C
:104EA0002324F1006FF05FFC130101FD2320A1001A
:104EB0002322B1001305010093058100232611026E
:104EC000EFF08FE783278100130720006374F70654
:104ED00013074000638AE7008327010163CC0704BE
:104EE0001307E0016350F7028327C10037050080F4
:104EF000639407001345F5FF8320C10213010103EA
:104F0000678000001305C0033305F5409377050261
:104F1000638A07028327C10133D5A7008327C10015
:104F2000E38C07FC8320C1023305A0401301010379
:104F3000678000008320C1021305000013010103F4
:104F4000678000008327C1011347F5FF939717007F
:104F5000B397E700032781013355A70033E5A70086
:104F60006FF0DFFB130101FD2320A1002322B1001C
:104F7000130501009305810023261102EFF0CFDB1A
:104F80008327C1001305810093B717002326F10082
:104F9000EFF04FB68320C1021301010367800000C8
:104FA000130101FD2324A100130581002326110212
:104FB0002326B1002328C100232CE100232EF10079
:104FC000EFF04FB38320C10213010103678000009B
:104FD000130101FD2320A1002322B10013050100CC
:104FE0009305810023261102EFF00FD5832781015D
:104FF0008326C10113D7E70193962600B3E6E600A6
:10500000139727006304070093E6160003260101A7
:105010008325C10003258100EFE01FF28320C10238
:105020001301010367800000B7070100637CF502EC
:105030001307F00F93068001930780006366A700B3
:10504000930600029307000037670060B357F5002E
:10505000130707CFB387E70003C507003385A640D2
:1050600067800000370700019306800093078001E6
:10507000E37CE5FC93060001938706003767006038
:10508000B357F500130707CFB387E70003C5070041
:105090003385A64067800000130101FF23248100AF
:1050A00037640060032604E4832644E423222101BC
:1050B00023203101232611001309050093890500DF
:1050C000EFF0DFB76354050213050900938509006B
:1050D000EFF09FDD8320C1000324810003294100FC
:1050E000832901001301010167800000032604E405
:1050F000832644E41305090093850900EFF0CFDA15
:10510000EFF09FDAB70700803305F5006FF09FFCE2
:105110001000000000000000017A5200017C010133
:105120001B0D02001000000018000000E0D5FFFF7A
:105130001C01000000000000100000002C00000016
:1051400040D9FFFF38000000000000001C000000F4
:105150004000000064D9FFFF7C00000000500E10EA
:1051600050810188029203930400000010000000A7
:1051700060000000C0D9FFFF6804000000000000CC
:10518000100000007400000014DEFFFF280400007F
:1051900000000000100000008800000028E2FFFF6F
:1051A000C801000000000000100000009C0000008A
:1051B000DCE3FFFF440100000000000010000000DD
:1051C000B00000000CE5FFFFD80000000000000068
:1051D00014000000C4000000D0E5FFFF48000000FC
:1051E00000440E505481010014000000DC00000057
:1051F00000E6FFFF5400000000440E5054810100FF
:1052000014000000F40000003CE6FFFFA8010000CD
:1052100000440E5054810100140000000C010000F5
:10522000CCE7FFFF2C01000000440E405481010038
:105230001000000024010000E0E8FFFFD40000009F
:10524000000000001400000038010000A0E9FFFF8A
:105250004000000000440E40548101001400000092
:1052600050010000C8E9FFFF5C00000000440E4050
:105270005481010010000000680100000CEAFFFFEB
:105280000400000000000000140000007C01000089
:10529000FCE9FFFF5400000000440E40548101006F
:1052A000100000009401000038EAFFFF0400000035
:1052B0000000000010000000A801000028EAFFFF25
:1052C000040000000000000010000000BC0100000D
:1052D00018EAFFFF040000000000000014000000B6
:1052E000D001000008EAFFFF4800000000440E4023
:1052F0005481010018000000E801000038EAFFFFB7
:10530000A800000000440E20508101880200000027
:105310001800000004020000C4EAFFFF980000002B
:1053200000440E204C810188028903001400000013
:105330002002000040EBFFFF8C00000000440E3014
:10534000508101001400000038020000B4EBFFFFA0
:105350003800000000440E305081010014000000AD
:1053600050020000D4EBFFFF2C00000000440E2090
:105370004C8101001400000068020000E8EBFFFF10
:105380004000000000440E30508101001000000079
:105390008002000010ECFFFF50030000000000003E
:1053A00010000000940200004CEFFFFF44020000D8
:1053B0000000000010000000A80200007CF1FFFFC8
:1053C000200100000000000014000000BC020000EA
:1053D00088F2FFFF5000000000440E70548101006D
:1053E00014000000D4020000C0F2FFFF5C000000C7
:1053F00000440E705481010014000000EC02000013
:1054000004F3FFFF6402000000440E7058810100A5
:10541000140000000403000050F5FFFFA401000089
:1054200000440E5058810100100000001C030000D1
:10543000DCF6FFFFE80000000000000014000000A0
:1054400030030000B0F7FFFF4800000000440E509A
:10545000548101001400000048030000E0F7FFFF42
:105460006400000000440E50548101001000000050
:10547000600300002CF8FFFF0400000000000000A3
:1054800014000000740300001CF8FFFF5C00000023
:1054900000440E5054810100100000008C030000F5
:1054A00060F8FFFF04000000000000001000000092
:1054B000A003000050F8FFFF0400000000000000FF
:1054C00010000000B403000040F8FFFF04000000DB
:1054D0000000000014000000C803000030F8FFFFC7
:1054E0005000000000440E505481010018000000DC
:1054F000E003000068F8FFFFC400000000440E3025
:10550000508101880200000018000000FC03000028
:1055100010F9FFFF8800000000440E304881018828
:105520000200000014000000180400007CF9FFFFD6
:10553000BC00000000440E30548101001400000043
:105540003004000020FAFFFF3C00000000440E3051
:1055500054810100140000004804000044FAFFFFD9
:105560003000000000440E304C81010014000000A7
:10557000600400005CFAFFFF5800000000440E3099
:105580005481010010000000780400009CFAFFFF25
:1055900070000000000000001C0000008C040000EF
:1055A000F8FAFFFF7800000000440E10448802580B
:0855B000920393048101000045
:1055B800747261700A00000068656C6C6F0000000E
:1055C8004448525953544F4E452050524F47524128
:1055D8004D2C20534F4D4520535452494E470000FF
:1055E8004468727973746F6E652042656E63686D86
:1055F80061726B2C2056657273696F6E20322E3182
:1056080020284C616E67756167653A2043290A0056
:1056180050726F6772616D20636F6D70696C65643D
:1056280020776974682027726567697374657227C3
:10563800206174747269627574650A0050726F67CC
:1056480072616D20636F6D70696C65642077697431
:10565800686F75742027726567697374657227208F
:105668006174747269627574650A0000506C6561D2
:105678007365206769766520746865206E756D624C
:105688006572206F662072756E73207468726F750C
:105698006768207468652062656E63686D61726B07
:1056A8003A20000025640000457865637574696FC9
:1056B8006E207374617274732C2025642072756E69
:1056C80073207468726F75676820446872797374A0
:1056D8006F6E650A00000000457865637574696F30
:1056E8006E20656E64730A0046696E616C2076618F
:1056F8006C756573206F66207468652076617269C1
:1057080061626C6573207573656420696E207468C6
:10571800652062656E63686D61726B3A0A0000000D
:10572800496E745F476C6F623A2020202020202049
:10573800202020202025640A0000000020202020AE
:105748002020202073686F756C642062653A2020E1
:105758002025640A00000000426F6F6C5F476C6F81
:10576800623A202020202020202020202025640AA2
:105778000000000043685F315F476C6F623A202089
:1057880020202020202020202025630A000000005F
:10579800202020202020202073686F756C642062F0
:1057A800653A20202025630A0000000043685F3224
:1057B8005F476C6F623A2020202020202020202084
:1057C8002025630A000000004172725F315F476C58
:1057D8006F625B385D3A2020202020202025640A53
:1057E800000000004172725F325F476C6F625B3885
:1057F8005D5B375D3A2020202025640A0000000008
:10580800202020202020202073686F756C6420627F
:10581800653A2020204E756D6265725F4F665F5253
:10582800756E73202B2031300A0000005074725FAF
:10583800476C6F622D3E0A0020205074725F436FE0
:105848006D703A2020202020202020202025640A66
:1058580000000000202020202020202073686F7581
:105868006C642062653A20202028696D706C656D33
:10587800656E746174696F6E2D646570656E6465BC
:105888006E74290A00000000202044697363723A8C
:105898002020202020202020202020202025640ACD
:1058A800000000002020456E756D5F436F6D703AF3
:1058B80020202020202020202025640A000000002D
:1058C8002020496E745F436F6D703A20202020209D
:1058D800202020202025640A000000002020537486
:1058E800725F436F6D703A202020202020202020F6
:1058F8002025730A000000002020202020202020DE
:1059080073686F756C642062653A202020444852A1
:105918005953544F4E452050524F4752414D2C2019
:10592800534F4D4520535452494E470A000000003A
:105938004E6578745F5074725F476C6F622D3E0AD3
:1059480000000000202020202020202073686F7590
:105958006C642062653A20202028696D706C656D42
:10596800656E746174696F6E2D646570656E6465CB
:105978006E74292C2073616D652061732061626FDC
:1059880076650A00496E745F315F4C6F633A202078
:1059980020202020202020202025640A000000004C
:1059A800496E745F325F4C6F633A202020202020BC
:1059B800202020202025640A00000000496E745F22
:1059C800335F4C6F633A20202020202020202020A5
:1059D8002025640A00000000456E756D5F4C6F63FA
:1059E8003A20202020202020202020202025640A62
:1059F800000000005374725F315F4C6F633A2020DF
:105A080020202020202020202025730A00000000CC
:105A1800202020202020202073686F756C6420626D
:105A2800653A2020204448525953544F4E4520503F
:105A3800524F4752414D2C20312753542053545232
:105A4800494E470A000000005374725F325F4C6F82
:105A5800633A202020202020202020202025730A9F
:105A680000000000202020202020202073686F756F
:105A78006C642062653A2020204448525953544FA0
:105A88004E452050524F4752414D2C2032274E440C
:105A980020535452494E470A000000004D65617377
:105AA800757265642074696D6520746F6F20736DFD
:105AB800616C6C20746F206F627461696E206D6513
:105AC800616E696E6766756C20726573756C747348
